:100000000C942A000C943F000C943F000C943F0089
:100010000C943F000C943F000C943F000C943F0064
:100020000C943F000C943F000C943F000C943F0054
:100030000C943F000C943F000C943F000C943F0044
:100040000C943F000C943F000C943F000C943F0034
:100050000C943F0011241FBECFE5D4E0DEBFCDBF1E
:1000600011E0A0E6B0E0E2E8F0E102C005900D92F8
:10007000AA32B107D9F70E9438070C943F080C94B4
:10008000000082E080B981B1836081B986B7846065
:1000900086BF089586B78B7F86BF089584EA86BFA2
:1000A00006B607FEFDCF089584E986BF06B604FCB8
:1000B000FDCF089583B984E886BF06B607FEFDCF5D
:1000C00081B1887F883159F081B1887F883249F0C9
:1000D00091B1987F81E0903429F080E0089581E02B
:1000E000089581E00895662321F026B7206426BF95
:1000F00003C026B72F7B26BF26B7206826BF06B6CB
:1001000007FEFDCF21B1287F283521F021B1287FBE
:10011000203529F423B1FC01208381E0089580E09B
:10012000089581B3807F81BB959A96980000949A38
:10013000000080B38295807F000094980000949A1C
:10014000000090B3000094980000882384F39598F1
:1001500081B38F6081BB0895282F22952F708F70F7
:10016000662311F4969801C0969A0000949A92B36F
:10017000907F922B92BB000094980000949A92B3C7
:10018000907F892B82BB0000949800000E94910010
:1001900008951F93182F8BE49DE10197F1F700C09C
:1001A000000081B38F6081BB8C9A8E9A8D9A82B346
:1001B000807F82BB9498959896980000949A919A23
:1001C0000000949800000E949100812F8C6060E0F4
:1001D0000E94AC0088E260E00E94AC001F9108958C
:1001E000CF93DF93EC018881882339F0219661E079
:1001F0000E94AC0089918823D1F7DF91CF910895B7
:10020000EF92FF920F931F93DF93CF9300D000D014
:100210000F92CDB7DEB77B01FE01319625E0DF01FD
:100220001D922A95E9F7009761F0FE0136962AE0C3
:1002300030E0B9010E9418088293862F972F00970B
:10024000C1F7BFEFEB16BFEFFB0669F4298122234C
:1002500079F4FE01329600E010E00F5F1F4F21910C
:100260002223D9F307C005E010E00E191F0902C0D0
:1002700000E010E0992324F48DE261E00E94AC00DC
:100280000530110594F47E010894E11CF11CE00E88
:10029000F11EF70181917F01805D61E00E94AC0059
:1002A0000F5F1F4F05301105A4F30F900F900F90B3
:1002B0000F900F90CF91DF911F910F91FF90EF90D2
:1002C0000895883230F461118064806860E00E9493
:1002D000AC0008951F93CF93DF93182FEB010E947A
:1002E0004E0080ED0E945A008823B1F0812F0E94B9
:1002F0005A00882399F00E944E0081ED0E945A0016
:10030000882371F0CE0160E00E947300882351F0D1
:100310000E94540081E007C080E005C080E003C077
:1003200080E001C080E0DF91CF911F9108950F938D
:100330001F93182F062F0E944E0080ED0E945A0036
:10034000882371F0812F0E945A00882359F0802F52
:100350000E945A00882341F00E94540081E005C0A9
:1003600080E003C080E001C080E01F910F910895FC
:10037000DF93CF9300D000D0CDB7DEB719821A82B9
:100380001B821C8281E0BE016D5F7F4F0E946A016B
:100390008BE0BE016C5F7F4F0E946A0182E0BE016C
:1003A0006F5F7F4F0E946A018CE0BE016E5F7F4FDE
:1003B0000E946A019B818C81981741F499818A81FE
:1003C000981721F48FE060E00E9497010F900F9042
:1003D0000F900F90CF91DF91089540E020E030E042
:1003E000C9010197F1F74F5F4A30D1F7089526B35D
:1003F00030E002C0359527958A95E2F781E020FD2F
:1004000080E008952091ED0030E002C035952795F9
:100410008A95E2F781E020FD80E008956F927F9257
:100420008F929F92AF92BF92CF92DF92FF920F93E3
:100430001F93DF93CF9300D000D0CDB7DEB780E617
:1004400090E09A83898387E690E09C838B8380E0A9
:1004500090E0FC013197F1F70197F1F7FF240FE6E7
:1004600010E06E010894C11CD11C0F2EFDE7AF2EC9
:10047000F0E0BF2EF02D0F2EFFE78F2EF0E09F2E25
:10048000F02D0F2EF8EE6F2EF3E07F2EF02D81E091
:1004900060E00E94AC00C8010E94F00082E061E0D0
:1004A0000E946101EF2DF0E0EE0FFF1FEC0DFD1D2E
:1004B000808191810E94F00080E061E00E946101F2
:1004C000C5010E94F0008FE061E00E946101C4015B
:1004D0000E94F00081E00E94F701882339F081E05A
:1004E0000E940202882311F4F110FA9482E00E9423
:1004F000F701882349F082E00E940202882321F458
:100500008F2D813009F0F39483E00E94F701882356
:10051000E9F083E00E9402028823C1F4FF2021F069
:100520008F2D813099F409C08EE067E00E94970119
:100530008FE060E00E94970110C08EE064E00E94AE
:1005400097018FE060E00E94970107C086B3809317
:10055000ED00C3010197F1F79ACF0F900F900F9024
:100560000F90CF91DF911F910F91FF90DF90CF906F
:10057000BF90AF909F908F907F906F9008958F92D3
:100580009F92AF92BF92CF92DF92EF92FF920F9322
:100590001F93DF93CF930F92CDB7DEB781E08E012B
:1005A0000F5F1F4FB8010E946A012981822F90E0DE
:1005B0008077907095958795959587959595879572
:1005C00095958795880FF82EFF0CFF0C8F0D2F70D7
:1005D000F82EF20E82E0B8010E946A012981822F72
:1005E00090E08073907095958795959587959595F2
:1005F000879595958795880F082F000F000F800F1E
:100600002F70082F020F10E00F2EF1E8CF2EF0E030
:10061000DF2EF02D0F2EFCE8AF2EF0E0BF2EF02DD8
:100620000F2EF7E1EF2EF02D0F2EF0E38F2EF5E7D2
:100630009F2EF02D81E060E00E94AC00C6010E9478
:10064000F00080E060E00E946101802F90E062E0B5
:1006500070E00E94000183E060E00E9461018F2D44
:1006600090E062E070E00E940001812F880F810F0E
:1006700061E00E946101C5010E94F00081E00E94DA
:10068000F7018823B1F081E00E940202882389F4F7
:10069000112329F4073111F00F5F0BC000E0113076
:1006A00031F48F2D8B3311F0F39403C0FF241230FB
:1006B00099F182E00E94F7018823C1F082E00E9454
:1006C0000202882399F4112329F4002311F0015028
:1006D0000DC00E2D113041F4FF2011F0FA9406C028
:1006E0000F2EFBE3FF2EF02D1230B1F083E00E94BD
:1006F000F701882351F083E00E940202882329F445
:10070000133011F01F5F01C010E086B38093ED003D
:10071000C4010197F1F78ECF1AE08F2D612F0E944F
:100720000C08682F6295607F692B69838BE00E94BB
:100730009701802F612F0E940C08682F6295607FBF
:10074000692B69838CE00E94970181E060E00E9440
:10075000AC008FE890E00E94F00080E061E00E9431
:10076000610189E990E00E94F00080E090E0FC01E6
:100770003197F1F7FC013197F1F7FC013197F1F76F
:10078000FC013197F1F70197F1F70F90CF91DF91CD
:100790001F910F91FF90EF90DF90CF90BF90AF909F
:1007A0009F908F9008957F928F929F92AF92BF9269
:1007B000CF92DF92EF92FF920F931F93DF93CF932D
:1007C0000F92CDB7DEB787E08E010F5F1F4FB801E4
:1007D0000E946A012981822F90E080779070959520
:1007E0008795959587959595879595958795880F84
:1007F000E82EEE0CEE0C8E0D2F70E82EE20E88E047
:10080000B8010E946A012981822F90E08077907060
:1008100095958795959587959595879595958795C0
:10082000880FF82EFF0CFF0C8F0D2F70F82EF20E94
:1008300089E0B8010E946A012981822F90E08073CB
:1008400090709595879595958795959587959595AC
:100850008795880F082F000F000F800F2F70082F2B
:10086000020F10E00F2EF5EACF2EF0E0DF2EF02D74
:100870000F2EFCE8AF2EF0E0BF2EF02D0F2EF7E18B
:100880007F2EF02D0F2EF0E38F2EF5E79F2EF02D0B
:1008900081E060E00E94AC00C6010E94F00080E0B0
:1008A00060E00E946101802F90E062E070E00E94B1
:1008B000000183E060E00E9461018F2D90E062E022
:1008C00070E00E94000186E060E00E9461018E2DD0
:1008D00090E062E070E00E940001812F880F810F9C
:1008E00061E00E946101C5010E94F00081E00E9468
:1008F000F7018823F9F081E00E9402028823D1F4F5
:10090000112329F4073111F00F5F11C000E01130FD
:1009100031F48F2D8B3311F0F3940CC0FF2412307F
:1009200031F48E2D8B3311F0E39404C0EE24133098
:1009300009F43DC082E00E94F701882311F182E0B2
:100940000E9402028823E9F4112329F4002311F004
:10095000015015C0072D113041F4FF2011F0FA9419
:1009600010C00F2EFBE3FF2EF02D123041F4EE20CD
:1009700011F0EA9406C00F2EFBE3EF2EF02D13309A
:10098000B1F083E00E94F701882351F083E00E94D8
:100990000202882329F4133011F01F5F01C010E018
:1009A00086B38093ED00C4010197F1F771CF1AE08F
:1009B0008E2D612F0E940C08682F6295607F692B35
:1009C000698387E00E9497018F2D612F0E940C0898
:1009D000682F6295607F692B698388E00E94970188
:1009E000802F612F0E940C08682F6295607F692B11
:1009F000698389E00E94970180E889838AE060E842
:100A00000E94970181E060E00E94AC008FE890E0D6
:100A10000E94F00080E061E00E94610183EB90E0C1
:100A20000E94F00080E090E0FC013197F1F7FC01BA
:100A30003197F1F70197F1F70F90CF91DF911F9167
:100A40000F91FF90EF90DF90CF90BF90AF909F906D
:100A50008F907F9008957F928F929F92AF92BF92D6
:100A6000CF92DF92EF92FF920F931F93DF93CF937A
:100A70000F92CDB7DEB780E08E010F5F1F4FB80138
:100A80000E946A012981822F90E08077907095956D
:100A90008795959587959595879595958795880FD1
:100AA000E82EEE0CEE0C8E0D2F70E82EE20E81E09B
:100AB000B8010E946A012981822F90E080779070AE
:100AC000959587959595879595958795959587950E
:100AD000880FF82EFF0CFF0C8F0D2F70F82EF20EE2
:100AE00082E0B8010E946A012981822F90E0807320
:100AF00090709595879595958795959587959595FA
:100B00008795880F082F000F000F800F2F70082F78
:100B1000020F10E00F2EF5EACF2EF0E0DF2EF02DC1
:100B20000F2EFCE8AF2EF0E0BF2EF02D0F2EF7E1D8
:100B30007F2EF02D0F2EF0E38F2EF5E79F2EF02D58
:100B400081E060E00E94AC00C6010E94F00080E0FD
:100B500060E00E946101802F90E062E070E00E94FE
:100B6000000183E060E00E9461018F2D90E062E06F
:100B700070E00E94000186E060E00E9461018E2D1D
:100B800090E062E070E00E940001812F880F810FE9
:100B900061E00E946101C5010E94F00081E00E94B5
:100BA000F7018823F9F081E00E9402028823D1F442
:100BB000112329F4073111F00F5F11C000E011304B
:100BC00031F48F2D8B3311F0F3940CC0FF241230CD
:100BD00031F48E2D8B3311F0E39404C0EE241330E6
:100BE00009F43DC082E00E94F701882311F182E000
:100BF0000E9402028823E9F4112329F4002311F052
:100C0000015015C0072D113041F4FF2011F0FA9466
:100C100010C00F2EFBE3FF2EF02D123041F4EE201A
:100C200011F0EA9406C00F2EFBE3EF2EF02D1330E7
:100C3000B1F083E00E94F701882351F083E00E9425
:100C40000202882329F4133011F01F5F01C010E065
:100C500086B38093ED00C4010197F1F771CF1AE0DC
:100C60008E2D612F0E940C08682F6295607F692B82
:100C7000698380E00E9497018F2D612F0E940C08EC
:100C8000682F6295607F692B698381E00E949701DC
:100C9000802F612F0E940C08682F6295607F692B5E
:100CA000698382E00E94970181E060E00E94AC00CD
:100CB0008FE890E00E94F00080E061E00E94610116
:100CC0008EEB90E00E94F00080E090E0FC01319714
:100CD000F1F7FC013197F1F70197F1F70F90CF9100
:100CE000DF911F910F91FF90EF90DF90CF90BF9019
:100CF000AF909F908F907F9008956F927F928F9288
:100D00009F92AF92BF92CF92DF92FF920F931F9369
:100D1000DF93CF93CDB7DEB72A970FB6F894DEBF37
:100D20000FBECDBFDE011196EFE1F1E08AE0019048
:100D30000D928150E1F780E090E0FC013197F1F7EE
:100D40000197F1F7FF240CEC10E06E010894C11C30
:100D5000D11C0F2EFDE7AF2EF0E0BF2EF02D0F2E91
:100D6000FFE78F2EF0E09F2EF02D0F2EF8E86F2E6C
:100D7000F3E17F2EF02D81E060E00E94AC00C8011D
:100D80000E94F00082E061E00E946101EF2DF0E03E
:100D9000EE0FFF1FEC0DFD1D808191810E94F00080
:100DA00080E061E00E946101C5010E94F0008FE0D7
:100DB00061E00E946101C4010E94F00081E00E9494
:100DC000F701882339F081E00E940202882311F4A0
:100DD000F110FA9482E00E94F701882349F082E042
:100DE0000E940202882321F48F2D843009F0F394AD
:100DF00083E00E94F701882301F183E00E94020250
:100E00008823D9F48F2D823099F0833028F4FF2085
:100E100049F0813091F409C08F2D833061F0843026
:100E200061F412C00E942B0508C00E94D30305C0C4
:100E30000E94BF0202C00E940E0286B38093ED00A2
:100E4000C3010197F1F797CF2A960FB6F894DEBF4A
:100E50000FBECDBFCF91DF911F910F91FF90DF901B
:100E6000CF90BF90AF909F908F907F906F9008959C
:100E70006F927F928F929F92AF92BF92DF92EF928A
:100E8000FF920F931F93DF93CF93CDB7DEB72E97CB
:100E90000FB6F894DEBF0FBECDBF0E9441008FE0B9
:100EA00060E00E9497018EE060E00E9497018EE072
:100EB00067E00E94970180E090E00197F1F781E000
:100EC0000E94C90088B38E6088BB80E08E010F5FEE
:100ED0001F4FB8010E946A0169816F77698380E0C2
:100EE0000E94970182E0B8010E946A0182E0698154
:100EF0000E94970181E060E00E94AC008CED90E0E0
:100F00000E94F0008E01025F1F4F0F2EFAE3DF2ECA
:100F1000F02D0F2EFCEDAF2EF0E0BF2EF02D88242B
:100F20009924689481F88C0E9D1E662477240F2ED8
:100F3000F4E6EF2EFF24F02D0E94B80180E0B80106
:100F40000E946A011A868E85982F9F70905D9987FE
:100F500090E0807790709595879595958795959574
:100F6000879595958795805D8887DF8281E0B801B8
:100F70000E946A018E85982F9F70905D9E8390E0FD
:100F80008077907095958795959587959595879598
:100F900095958795805D8D83DC8282E0B8010E9403
:100FA0006A018E85982F9F70905D9B8390E080737F
:100FB0009070959587959595879595958795959535
:100FC0008795805D8A8381E060E00E94AC00C50166
:100FD0000E94F00084E061E00E946101C4010E946F
:100FE000F00082E00E94F701882329F00E947D062C
:100FF000C3010197F1F7C7010197F1F782E00E9461
:10100000F701882329F00E947D06C3010197F1F7BB
:10101000C7010197F1F790CF991B79E004C0991FA0
:10102000961708F0961B881F7A95C9F78095089542
:1010300097FB092E07260AD077FD04D00CD006D0E6
:1010400000201AF4709561957F4F0895F6F79095FA
:1010500081959F4F0895AA1BBB1B51E107C0AA1F92
:10106000BB1FA617B70710F0A61BB70B881F991F49
:101070005A95A9F780959095BC01CD010895F894F3
:02108000FFCFA0
:10108200456E61626C650044697361626C65002043
:10109200202020416C61726D20202020003C003E07
:1010A2000030303A3030203C4F4B3E005E5E004D07
:1010B2006573736167652021004F666654696D65CB
:1010C200205365740030303A30303A3030203C4F93
:1010D2004B3E004F6E54696D6520536574004D613F
:1010E200696E2054696D65205365740020202020AC
:1010F2004D61696E204D656E7520200020202052C2
:1011020054432044533332333120202000FF5365AF
:10111200742054696D6500536574204F6E205469C4
:101122006D6500536574204F66662054696D6500D5
:1011320053657420416C61726D005175697400EEE3
:0A11420000F700030110011A01007C
:00000001FF
